:1000000001308A00F229000083161F109F101F1173
:100010009F111F1783121F179F1383169F17831299
:100020001F140830F8001F08C73978049F001030EB
:10003000F700F70B192800001F151F191D281E08AF
:10004000FA0083161E088312A7007A08A800280861
:10005000AA002708A9008E30F7002A08F80029080E
:10006000F900FA01F808031D3F287908F800F901A2
:100070000830F702F808031D3F28F701472803104E
:10008000F81B4628F90DF80DF7033F28F8137A08F6
:10009000AC007908AB007808AA007708A900B00185
:1000A000AF014830AE008530AD0029080319C528DE
:1000B000B1002D080319C528B107031866287F3041
:1000C000B102031CC5280319C5286A288130B1076D
:1000D0000318C5283108F700F801F901FA012A08C8
:1000E000B500B5172B08B4002C08B3001830B100C8
:1000F000B201331C93283008FA07031C8528F90A3B
:10010000031D8528F80A0319B2172F08F907031CE5
:100110008C28F80A0319B2172E08AB00AB172B086E
:10012000F8070318B217B20DF80CF90CFA0CB50C5D
:10013000B40CB30C0310B10B78280130F707031887
:10014000C528F81BAA28B50DFA0DF90DF80DF7030F
:100150000319C528B51FBB28FA0A031DBB28F90AD5
:10016000031DBB28F80A031DBB28F80CF90CFA0C78
:10017000F70A0319C5282A08B2002E08B206B21FD2
:10018000C328F817C928F813C928F701F801F9019D
:10019000FA017A08AA007908A9007808A800770867
:1001A000A7002A08AE002908AD002808AC002708DF
:1001B000AB00B201C030B1007F30B0008830AF007A
:1001C0002B080319A529B7002F080319A529B70281
:1001D000031CEF287F30B7070318A529F5288130C5
:1001E000B702031CA5290319A5293708F700F80150
:1001F000F901FA01B6012C08B500B5172D08B400B5
:100200002E08B3001930B7003208B30203181829BA
:100210000130B40203181829B50203181829B602D0
:1002200003181829B60AB50AB40A3208B3074A29CE
:100230003108B402031833290130B50203183329F9
:10024000B60203183329B60AB50A3108B4073208D2
:10025000B307031C4A29B40A031D4A29B50A031D22
:100260004A29B60A4A2930088038B50203184929B4
:100270000130B60203184929B60A30088038B5079C
:100280003108B407031C2729B50A031D2729B60A1C
:1002900027297A14B70B4D2958290310B30DB40D33
:1002A000B50DB60D0310FA0DF90DF80DB80D0429B2
:1002B000381C60290310F80CF90CFA0CB80C6329EF
:1002C000F7030319A529B81B8C290310B30DB40D2E
:1002D000B50DB60D3208B302031878290130B40207
:1002E00003187829B50203187829B602031C9B2944
:1002F0003108B402031883290130B5020318832999
:10030000B602031C9B2930088038B50203188C29DB
:100310000130B602031C9B29FA0A031D9B29F90A26
:10032000031D9B29F80A031D9B29F70A0319A52918
:10033000F80CF90CFA0C2C08B7003008B706B71FF8
:10034000A329F817A929F813A929F701F801F90138
:10035000FA017A08A6007908A5007808A4007708B1
:10036000A3002308F7002408F8002508F900260850
:10037000FA008A110A12092A8E30F7002308F702C0
:100380002408F9002508F800F917F7080319D329FC
:100390000310F908031DCF29F8080319D329F90C14
:1003A000F80CF70BC829A41FDA29F809F909F80A8B
:1003B0000319F90A8A110A12122A233084008313BE
:1003C00000080319F1290130F800F701F70BE629BD
:1003D000F80BE5294A30F700F70BEC29EF29800BE1
:1003E000E329080003081F39830019308316990098
:1003F000A630980090308312980083161F149F1423
:100400001F159F1107309C0083138312A001A101C7
:1004100004287A08A6007908A5007808A4007708BF
:10042000A300BC297808A200FD300C1E152A9900F3
:100430000530A300DD2122080C1E1C2A990014306F
:08044000A300DD21082A63007E
:02400E00713F00
:00000001FF
;PIC16F877A
;CRC=8B8C  CREATED="07-dic.-21 18:44"
