:1000000004308A00852C0000FF00030E8301A1004C
:100010000A08A0008A010408A2007708A300780853
:10002000A4007908A5007A08A600831383128C30F7
:100030008400801E1D288C1A2E2822088400230884
:10004000F7002408F8002508F9002608FA0020081F
:100050008A00210E8300FF0E7F0E09008A110A120A
:1000600031288C1E31281A08AE00FA012E08F9003A
:10007000D601790DD700D70DFC30D7055708D90028
:100080005608D800DB01C830DA00F801F901F701A1
:10009000FA015B08031D4F285A080319692810301C
:1000A000DC000310D80DD90DF70DFA0D5B087A02AC
:1000B000031D5C285A087702031C65285A08F702BA
:1000C000031CFA035B08FA020314F80DF90DDC0BAC
:1000D00051287908B2007808B1008C128A110A12EE
:1000E0001D288E30F7004308F8004208F900FA0195
:1000F000F808031D85287908F800F9010830F7028F
:10010000F808031D8528F7018D280310F81B8C289B
:10011000F90DF80DF7038528F813080049080319AD
:10012000FE28D1004D080319FE28D10703189F2887
:100130007F30D102031CFE280319FE28A32881303A
:10014000D1070318FE285108F700F801F901FA0158
:100150004A08D500D5174B08D4004C08D3001830F6
:10016000D100D201531CCC285008FA07031CBE282A
:10017000F90A031DBE28F80A0319D2174F08F90718
:10018000031CC528F80A0319D2174E08CB00CB1759
:100190004B08F8070318D217D20DF80CF90CFA0C1B
:1001A000D50CD40CD30C0310D10BB1280130F707B8
:1001B0000318FE28F81BE328D50DFA0DF90DF80DEC
:1001C000F7030319FE28D51FF428FA0A031DF428A3
:1001D000F90A031DF428F80A031DF428F80CF90C99
:1001E000FA0CF70A0319FE284A08D2004E08D20674
:1001F000D21FFC28F8170229F8130229F701F80189
:10020000F901FA01080044080319C829D000480878
:100210000319C829D002031C12297F30D007031804
:10022000C82918298130D002031CC8290319C829FC
:100230005008F700F801F901FA01CF014508CE0096
:10024000CE174608CD004708CC001930D0004B0827
:10025000CC0203183B290130CD0203183B29CE0202
:1002600003183B29CF0203183B29CF0ACE0ACD0A37
:100270004B08CC076D294A08CD02031856290130D6
:10028000CE0203185629CF0203185629CF0ACE0AE8
:100290004A08CD074B08CC07031C6D29CD0A031D66
:1002A0006D29CE0A031D6D29CF0A6D2949088038B2
:1002B000CE0203186C290130CF0203186C29CF0A33
:1002C00049088038CE074A08CD07031C4A29CE0AC0
:1002D000031D4A29CF0A4A297A14D00B70297B2999
:1002E0000310CC0DCD0DCE0DCF0D0310FA0DF90D71
:1002F000F80DD10D2729511C83290310F80CF90C96
:10030000FA0CD10C8629F7030319C829D11BAF2990
:100310000310CC0DCD0DCE0DCF0D4B08CC02031824
:100320009B290130CD0203189B29CE0203189B297B
:10033000CF02031CBE294A08CD020318A6290130AA
:10034000CE020318A629CF02031CBE294908803813
:10035000CE020318AF290130CF02031CBE29FA0ACE
:10036000031DBE29F90A031DBE29F80A031DBE2973
:10037000F70A0319C829F80CF90CFA0C4508D00043
:100380004908D006D01FC629F817CC29F813CC2964
:10039000F701F801F901FA01080083161F109F10F8
:1003A0001F119F111F1783121F179F1383169F176B
:1003B00083121F140030F8001F08C73978049F000B
:1003C0001030F700F70BE22900001F151F19E6296E
:1003D0001E08FA0083161E088312C0001E08C10002
:1003E000C3004008C20071207A08CC007908CB0015
:1003F0007808CA007708C900D001CF014830CE0084
:100400008530CD008E207A08C3007908C2007808B4
:10041000C1007708C0007A08C7007908C6007808CC
:10042000C5007708C400CB01C030CA007F30C900C6
:100430008830C80003217A08BF007908BE00780818
:10044000BD007708BC003C08F7003D08F8003E08F6
:10045000F9003F08FA008A110A12AE2C83161F1009
:100460009F101F119F111F1783121F179F138316B1
:100470009F1783121F140830F8001F08C73978042B
:100480009F001030F700F70B432A00001F151F19BB
:10049000472A1E08FA0083161E088312C0001E0891
:1004A000C100C3004008C20071207A08CC0079085E
:1004B000CB007808CA007708C900D001CF012030EE
:1004C000CE008130CD008E207A08C3007908C200AA
:1004D0007808C1007708C0007A08CC007908CB0002
:1004E0007808CA007708C900D001CF014830CE0093
:1004F0008530CD008E207A08C3007908C2007808C4
:10050000C1007708C0007A08C7007908C6007808DB
:10051000C5007708C400CB01C030CA007F30C900D5
:100520008830C80003217A08BF007908BE00780827
:10053000BD007708BC003C08F7003D08F8003E0805
:10054000F9003F08FA008A110A12B72C8E30F70022
:100550003C08F7023D08F9003E08F800F917F708D3
:100560000319BD2A0310F908031DB92AF808031955
:10057000BD2AF90CF80CF70BB22ABD1FC42AF809E2
:10058000F909F80A0319F90A8A110A12112D430808
:10059000F80142020318CF2A4208F700DB2AF701CC
:1005A0000830C400C20DF70D430877020318F700A6
:1005B000F80DC40BD22A080020303D1E3030BE009A
:1005C0003C08F700BC1FEC2AF709F70A7708BC00C3
:1005D0002D30BE00BD173D143C08C2006430C3007E
:1005E000C7227708BC0030307807BF003C08C20043
:1005F0000A30C300C72230307707C1003030780797
:10060000C0003E08F70030303F0203190B2BBD1429
:10061000BD1B3D151F2B3E08BF002030BE003030F3
:1006200040020319172B3D14BD1BBD141F2B031DC6
:100630003D14031D1F2B3F08C0002030BF003D1993
:10064000262BBD182A2B3D182E2B322B3E080C1EB4
:10065000272B99003F080C1E2B2B990040080C1EDD
:100660002F2B990041080C1E332B99008A110A1276
:100670001C2D83183E2B513084008313F701F801A1
:10068000F901FA01D101D201D301D40150084F047C
:100690004E044D0403197C2B2030D5000310C90DE6
:1006A000CA0DCB0DCC0DD10DD20DD30DD40D5008EC
:1006B0005402031D652B4F085302031D652B4E0882
:1006C0005202031D652B4D085102031C762B4D0869
:1006D000D1024E08031C4E0FD2024F08031C4F0FCD
:1006E000D3025008031C500FD4020314F70DF80D69
:1006F000F90DFA0DD50B4E2B51088000840A5208D3
:100700008000840A53088000840A5408800008008E
:100710000408C1004008C3000319A72B3F08CC0000
:100720003E08CB003D08CA003C08C900D001CF01FB
:100730002030CE008230CD008E207A08BF007908AC
:10074000BE007808BD007708BC00C30B8E2B3F08A5
:10075000CC003E08CB003D08CA003C08C90049084F
:10076000B63CC900FA014A08CD00CA170310CA0CEA
:10077000CB0CCC0CFA0CF90CF80CF70CC90BB62B03
:10078000CD1FCD2BF709F809F909FA09F70A031962
:10079000F80A0319F90A0319FA0A7A08BF00790856
:1007A000BE007808BD007708BC00BF1FE42BC10362
:1007B000C116BC09BD09BE09BF09BC0A0319BD0A9F
:1007C0000319BE0A0319BF0A3B30C8009A30C7009C
:1007D000CA30C600C5010A30C30040080319C10A67
:1007E00083143C30840083133F08CC003E08CB00C8
:1007F0003D08CA003C08C9004808D0004708CF009F
:100800004608CE004508CD0039237808F708031DB7
:100810001C2C400A430203191C2C410803191E2CEE
:100820000F3943020319162C0318522CC11B522CEA
:10083000411B1E2C20304D2C2030C105C11E2D2CFB
:10084000C1124008031DC1037708C1002D300C1EE2
:10085000272C99004108F700C10140084302031DFD
:100860003C2C7708C1002E300C1E342C9900410816
:10087000F7002030C10500303030C11E4D2CC112B0
:100880004008031DC1037708C1002D300C1E462C03
:1008900099004108F700C1013030F70777080C1EB6
:1008A0004F2C990083104808CC004708CB0046081D
:1008B000CA004508C900D001CF01CE010A30CD00E1
:1008C00039237A08C8007908C7007808C600770875
:1008D000C500C30BF02B8A110A122D2D3D30840068
:1008E000831300080319822C0130F800F701F70B7D
:1008F000772CF80B762C4A30F700F70B7D2C802CE8
:10090000800B742C8A110A123A2D03081F398300B8
:10091000193083169900A630980090308312980001
:10092000FF30B30083161F149F141F159F1107304B
:100930009C0083138312A701A801853090008316C1
:100940008610831286140230F700F70BA52CA82C12
:1009500000008316861083128610CD297A08B7000E
:100960007908B6007808B5007708B4002E2A7A080E
:10097000BB007908BA007808B9007708B800831678
:1009800006148312061CBF2C8E018F018E01831664
:10099000061483120618C72C0F08FA000E08F70079
:1009A0000F087A02031DCC2C7708C2007A08C30016
:1009B00071207A08AC007908AB007808AA007708A3
:1009C000A9002C08C7002B08C6002A08C500290862
:1009D000C400CB01CA01C9018030C80003217A08D4
:1009E000BF007908BE007808BD007708BC007A080F
:1009F000CC007908CB007808CA007708C9002830F5
:100A0000D0007E30CF000C30CE007A30CD008E206A
:100A10007A08BF007908BE007808BD007708BC00DE
:100A2000A62A7808AD0020300C1E142D99002D0840
:100A3000BC001830BD00DC2A20300C1E1D2D990092
:100A4000893084003708BF003608BE003508BD0075
:100A50003408BC000230C000882B20300C1E2E2D24
:100A600099000A300C1E322D99000230BC00FA3079
:0C0A7000BD006E2CBC0B372D9F2C6300CA
:02400E00713F00
:00000001FF
;PIC16F877A
;CRC=D1FE  CREATED="03-dic.-21 00:42"
