:1000000004308A00532C0000FF00030E8301A1007E
:100010000A08A0008A010408A2007708A300780853
:10002000A4007908A5007A08A600831383128C30F7
:100030008400801E1D288C1A2E2822088400230884
:10004000F7002408F8002508F9002608FA0020081F
:100050008A00210E8300FF0E7F0E09008A110A120A
:1000600031288C1E31281A08AE00FA012E08F9003A
:10007000D601790DD700D70DFC30D7055708D90028
:100080005608D800DB01C830DA00F801F901F701A1
:10009000FA015B08031D4F285A080319692810301C
:1000A000DC000310D80DD90DF70DFA0D5B087A02AC
:1000B000031D5C285A087702031C65285A08F702BA
:1000C000031CFA035B08FA020314F80DF90DDC0BAC
:1000D00051287908B2007808B1008C128A110A12EE
:1000E0001D288E30F7004308F8004208F900FA0195
:1000F000F808031D85287908F800F9010830F7028F
:10010000F808031D8528F7018D280310F81B8C289B
:10011000F90DF80DF7038528F813080049080319AD
:10012000FE28D1004D080319FE28D10703189F2887
:100130007F30D102031CFE280319FE28A32881303A
:10014000D1070318FE285108F700F801F901FA0158
:100150004A08D500D5174B08D4004C08D3001830F6
:10016000D100D201531CCC285008FA07031CBE282A
:10017000F90A031DBE28F80A0319D2174F08F90718
:10018000031CC528F80A0319D2174E08CB00CB1759
:100190004B08F8070318D217D20DF80CF90CFA0C1B
:1001A000D50CD40CD30C0310D10BB1280130F707B8
:1001B0000318FE28F81BE328D50DFA0DF90DF80DEC
:1001C000F7030319FE28D51FF428FA0A031DF428A3
:1001D000F90A031DF428F80A031DF428F80CF90C99
:1001E000FA0CF70A0319FE284A08D2004E08D20674
:1001F000D21FFC28F8170229F8130229F701F80189
:10020000F901FA01080044080319C829D000480878
:100210000319C829D002031C12297F30D007031804
:10022000C82918298130D002031CC8290319C829FC
:100230005008F700F801F901FA01CF014508CE0096
:10024000CE174608CD004708CC001930D0004B0827
:10025000CC0203183B290130CD0203183B29CE0202
:1002600003183B29CF0203183B29CF0ACE0ACD0A37
:100270004B08CC076D294A08CD02031856290130D6
:10028000CE0203185629CF0203185629CF0ACE0AE8
:100290004A08CD074B08CC07031C6D29CD0A031D66
:1002A0006D29CE0A031D6D29CF0A6D2949088038B2
:1002B000CE0203186C290130CF0203186C29CF0A33
:1002C00049088038CE074A08CD07031C4A29CE0AC0
:1002D000031D4A29CF0A4A297A14D00B70297B2999
:1002E0000310CC0DCD0DCE0DCF0D0310FA0DF90D71
:1002F000F80DD10D2729511C83290310F80CF90C96
:10030000FA0CD10C8629F7030319C829D11BAF2990
:100310000310CC0DCD0DCE0DCF0D4B08CC02031824
:100320009B290130CD0203189B29CE0203189B297B
:10033000CF02031CBE294A08CD020318A6290130AA
:10034000CE020318A629CF02031CBE294908803813
:10035000CE020318AF290130CF02031CBE29FA0ACE
:10036000031DBE29F90A031DBE29F80A031DBE2973
:10037000F70A0319C829F80CF90CFA0C4508D00043
:100380004908D006D01FC629F817CC29F813CC2964
:10039000F701F801F901FA01080083161F109F10F8
:1003A0001F119F111F1783121F179F1383169F176B
:1003B00083121F140030F8001F08C73978049F000B
:1003C0001030F700F70BE22900001F151F19E6296E
:1003D0001E08FA0083161E088312C0001E08C10002
:1003E000C3004008C20071207A08CC007908CB0015
:1003F0007808CA007708C900D001CF014830CE0084
:100400008530CD008E207A08C3007908C2007808B4
:10041000C1007708C0007A08C7007908C6007808CC
:10042000C5007708C400CB01C030CA007F30C900C6
:100430008830C80003217A08BF007908BE00780818
:10044000BD007708BC003C08F7003D08F8003E08F6
:10045000F9003F08FA008A110A127C2C83161F103B
:100460009F101F119F111F1783121F179F138316B1
:100470009F1783121F140830F8001F08C73978042B
:100480009F001030F700F70B432A00001F151F19BB
:10049000472A1E08FA0083161E088312C0001E0891
:1004A000C100C3004008C20071207A08CC0079085E
:1004B000CB007808CA007708C900D001CF01CE016F
:1004C0007F30CD008E207A08BF007908BE00780802
:1004D000BD007708BC003C08F7003D08F8003E0866
:1004E000F9003F08FA008A110A12852C8E30F700B5
:1004F0003C08F7023D08F9003E08F800F917F70834
:1005000003198D2A0310F908031D892AF808031915
:100510008D2AF90CF80CF70B822ABD1F942AF809D2
:10052000F909F80A0319F90A8A110A12DF2C43089B
:10053000F801420203189F2A4208F700AB2AF7018C
:100540000830C400C20DF70D430877020318F70006
:10055000F80DC40BA22A080020303D1E3030BE002A
:100560003C08F700BC1FBC2AF709F70A7708BC0053
:100570002D30BE00BD173D143C08C2006430C300DE
:1005800097227708BC0030307807BF003C08C200D3
:100590000A30C300972230307707C1003030780727
:1005A000C0003E08F70030303F020319DB2ABD14BB
:1005B000BD1B3D15EF2A3E08BF002030BE00303085
:1005C00040020319E72A3D14BD1BBD14EF2A031D89
:1005D0003D14031DEF2A3F08C0002030BF003D1925
:1005E000F62ABD18FA2A3D18FE2A022B3E080C1ED8
:1005F000F72A99003F080C1EFB2A990040080C1EA0
:10060000FF2A990041080C1E032B99008A110A1237
:10061000EA2C83180E2B513084008313F701F80164
:10062000F901FA01D101D201D301D40150084F04DC
:100630004E044D0403194C2B2030D5000310C90D76
:10064000CA0DCB0DCC0DD10DD20DD30DD40D50084C
:100650005402031D352B4F085302031D352B4E0842
:100660005202031D352B4D085102031C462B4D0829
:10067000D1024E08031C4E0FD2024F08031C4F0F2D
:10068000D3025008031C500FD4020314F70DF80DC9
:10069000F90DFA0DD50B1E2B51088000840A520863
:1006A0008000840A53088000840A540880000800EF
:1006B0000408C1004008C3000319772B3F08CC0091
:1006C0003E08CB003D08CA003C08C900D001CF015C
:1006D0002030CE008230CD008E207A08BF0079080D
:1006E000BE007808BD007708BC00C30B5E2B3F0836
:1006F000CC003E08CB003D08CA003C08C9004908B0
:10070000B63CC900FA014A08CD00CA170310CA0C4A
:10071000CB0CCC0CFA0CF90CF80CF70CC90B862B93
:10072000CD1F9D2BF709F809F909FA09F70A0319F2
:10073000F80A0319F90A0319FA0A7A08BF007908B6
:10074000BE007808BD007708BC00BF1FB42BC103F2
:10075000C116BC09BD09BE09BF09BC0A0319BD0AFF
:100760000319BE0A0319BF0A3B30C8009A30C700FC
:10077000CA30C600C5010A30C30040080319C10AC7
:1007800083143C30840083133F08CC003E08CB0028
:100790003D08CA003C08C9004808D0004708CF00FF
:1007A0004608CE004508CD0009237808F708031D48
:1007B000EC2B400A43020319EC2B41080319EE2BE2
:1007C0000F3943020319E62B0318222CC11B222CDC
:1007D000411BEE2B20301D2C2030C105C11EFD2BEE
:1007E000C1124008031DC1037708C1002D300C1E43
:1007F000F72B99004108F700C10140084302031D8F
:100800000C2C7708C1002E300C1E042C99004108D6
:10081000F7002030C10500303030C11E1D2CC11240
:100820004008031DC1037708C1002D300C1E162C93
:1008300099004108F700C1013030F70777080C1E16
:100840001F2C990083104808CC004708CB004608AD
:10085000CA004508C900D001CF01CE010A30CD0041
:1008600009237A08C8007908C7007808C600770805
:10087000C500C30BC02B08003D3084008313000863
:100880000319502C0130F800F701F70B452CF80B39
:10089000442C4A30F700F70B4B2C4E2C800B422C8B
:1008A0008A110A12152D03081F3983001930831687
:1008B0009900A6309800903083129800FF30B30062
:1008C00083161F149F141F159F1107309C0083135C
:1008D0008312A701A8018530900083168610831229
:1008E00086140230F700F70B732C762C0000831669
:1008F000861083128610CD297A08B7007908B600D1
:100900007808B5007708B4002E2A7A08BB00790869
:10091000BA007808B9007708B80083160614831265
:10092000061C8D2C8E018F018E01831606148312F6
:100930000618952C0F08FA000E08F7000F087A0227
:10094000031D9A2C7708C2007A08C30071207A0828
:10095000AC007908AB007808AA007708A9002C0839
:10096000C7002B08C6002A08C5002908C400CB010F
:10097000CA01C9018030C80003217A08BF00790884
:10098000BE007808BD007708BC007A08CC00790862
:10099000CB007808CA007708C9002830D0007E3024
:1009A000CF000C30CE007A30CD008E207A08BF0008
:1009B0007908BE007808BD007708BC00762A780860
:1009C000AD0020300C1EE22C99002D08BC00183020
:1009D000BD00AC2A20300C1EEB2C9900893084001D
:1009E0003708BF003608BE003508BD003408BC001B
:1009F0000230C000582320300C1EFC2C9900893096
:100A000084003B08BF003A08BE003908BD00380822
:100A1000BC000230C00058230A300C1E0D2D990076
:100A20000230BC00FA30BD003C2CBC0B122D6D2CEA
:020A3000630061
:02400E00713F00
:00000001FF
;PIC16F877A
;CRC=3E02  CREATED="03-dic.-21 01:12"
