:1000000002308A005F2A00008E30F7003208F800C4
:100010003108F900FA01F808031D18287908F800DA
:10002000F9010830F702F808031D1828F701202805
:100030000310F81B1F28F90DF80DF7031828F81303
:10004000080031080319E628BD0035080319E62821
:10005000BD02031C30287F30BD070318E628362870
:100060008130BD02031CE6280319E6283D08F7008D
:10007000F801F901FA01BC013208BB00BB173308D3
:10008000BA003408B9001930BD003808B9020318A5
:1000900059280130BA0203185928BB0203185928FD
:1000A000BC0203185928BC0ABB0ABA0A3808B907A7
:1000B0008B283708BA02031874280130BB020318D2
:1000C0007428BC0203187428BC0ABB0A3708BA0794
:1000D0003808B907031C8B28BA0A031D8B28BB0AF2
:1000E000031D8B28BC0A8B2836088038BB020318F6
:1000F0008A280130BC0203188A28BC0A36088038D6
:10010000BB073708BA07031C6828BB0A031D682809
:10011000BC0A68287A14BD0B8E2899280310B90DE3
:10012000BA0DBB0DBC0D0310FA0DF90DF80DBE0D87
:1001300045283E1CA1280310F80CF90CFA0CBE0C43
:10014000A428F7030319E628BE1BCD280310B90D18
:10015000BA0DBB0DBC0D3808B9020318B92801301F
:10016000BA020318B928BB020318B928BC02031C41
:10017000DC283708BA020318C4280130BB02031870
:10018000C428BC02031CDC2836088038BB020318D4
:10019000CD280130BC02031CDC28FA0A031DDC2830
:1001A000F90A031DDC28F80A031DDC28F70A0319E5
:1001B000E628F80CF90CFA0C3208BD003608BD062A
:1001C000BD1FE428F817EA28F813EA28F701F80118
:1001D000F901FA010800350803195B29BD00390847
:1001E00003195B29BD070318FC287F30BD02031CDF
:1001F0005B2903195B2900298130BD0703185B299E
:100200003D08F700F801F901FA013608C100C117ED
:100210003708C0003808BF001830BD00BE013F1CC1
:1002200029293C08FA07031C1B29F90A031D1B296D
:10023000F80A0319BE173B08F907031C2229F80A1C
:100240000319BE173A08B700B7173708F80703189D
:10025000BE17BE0DF80CF90CFA0CC10CC00CBF0C8B
:100260000310BD0B0E290130F70703185B29F81B9B
:100270004029C10DFA0DF90DF80DF70303195B299B
:10028000C11F5129FA0A031D5129F90A031D5129D9
:10029000F80A031D5129F80CF90CFA0CF70A031996
:1002A0005B293608BE003A08BE06BE1F5929F8175A
:1002B0005F29F8135F29F701F801F901FA01080035
:1002C00083168610831286140230F700F70B662916
:1002D000692900008316861083128610831606147F
:1002E0008312061C6E298E018F018E01831606145F
:1002F0008312061876290F08FA000E08F7000F0877
:100300007A02031D7B297708B1007A08B200042025
:100310007A08AC007908AB007808AA007708A90031
:100320002C08B4002B08B3002A08B2002908B10039
:10033000B801B701B6018030B50021207A08B400B9
:100340007908B3007808B2007708B1007A08B800DD
:100350007908B7007808B6007708B5002830BC00E7
:100360007E30BB000C30BA007A30B900EB207A083E
:10037000B0007908AF007808AE007708AD002D080E
:10038000F7002E08F8002F08F9003008FA008A114B
:100390000A12952A8E30F7002908F7022A08F90078
:1003A0002B08F800F917F7080319E1290310F908D9
:1003B000031DDD29F8080319E129F90CF80CF70BE6
:1003C000D629AA1FE829F809F909F80A0319F90A30
:1003D000080083161F109F101F119F111F178312F3
:1003E0001F179F1383169F1783121F140030F800E6
:1003F0001F08C73978049F001030F700F70BFE295B
:1004000000001F151F19022A1E08FA0083161E0875
:100410008312AD001E08AE00B2002D08B10004200A
:100420007A08B8007908B7007808B6007708B500F0
:10043000BC01BB014830BA008530B900EB207A0816
:10044000B0007908AF007808AE007708AD007A08F0
:10045000B4007908B3007808B2007708B100B80199
:10046000C030B7007F30B6008830B50021207A0850
:10047000AC007908AB007808AA007708A900290821
:10048000F7002A08F8002B08F9002C08FA008A1156
:100490000A12A12A293084008313000803195E2A56
:1004A0000130F800F701F70B532AF80B522A4A30B3
:1004B000F700F70B592A5C2A800B502A0800030822
:1004C0001F398300193083169900A63098009030A8
:1004D00083129800FF30A60083161F149F141F1567
:1004E0009F1107309C0083138312A001A101853066
:1004F0009000F930A2000130A3002302F800780D2B
:10050000F700F70DF70DF830F7057708053892007A
:10051000220883169200831226112608831687006C
:10052000831207110C30970060297A08AC00790813
:10053000AB007808AA007708A900CA217808A700AC
:10054000E9297A08AC007908AB007808AA00770896
:10055000A900CA217808A8002708073C031CB22A72
:100560009501B72AFA3095001708CF399700FF3068
:100570000C1EB82A99000A30A9004A2227080C1E2E
:10058000BF2A99006430A9004A22FE300C1EC62AF8
:1005900099000A30A9004A2228080C1ECD2A990089
:0A05A0006430A9004A22942A630087
:02400E00713F00
:00000001FF
;PIC16F877A
;CRC=D542  CREATED="07-dic.-21 18:44"
